:100000000C946D010C9495010C9495010C94950140
:100010000C9495010C9495010C9495010C94950108
:100020000C9495010C9495010C9495010C949501F8
:100030000C9495010C9495010C9495010C949501E8
:100040000C942E070C9495010C9495010C94950139
:100050000C9495010C9495010C9495010C949501C8
:100060000C9478070C949501AED580A81FD300405E
:100070008D142002A1C8DA02817FD9F1DB40A4A649
:10008000AF00030C0F30333C3FC0C3CCCFF0F3FCC8
:10009000FF00000000250028002B000000000024C5
:1000A0000027002A00000005072060000000000073
:1000B00000005F00000007000700147F147F142475
:1000C0002A7F2A12231308646236495620500008FA
:1000D000070300001C2241000041221C002A1C7F53
:1000E0001C2A08083E08080080703000080808082C
:1000F00008000060600020100804023E5149453E9F
:1001000000427F400072494949462141494D331818
:1001100014127F1027454545393C4A494931412150
:100120001109073649494936464949291E00001434
:10013000000000403400000008142241141414147C
:1001400014004122140802015909063E415D594E2E
:100150007C1211127C7F494949363E414141227F40
:100160004141413E7F494949417F090909013E41D9
:100170004151737F0808087F00417F4100204041C2
:100180003F017F081422417F404040407F021C0213
:100190007F7F0408107F3E4141413E7F09090906E7
:1001A0003E4151215E7F09192946264949493203BA
:1001B000017F01033F4040403F1F2040201F3F4040
:1001C00038403F63140814630304780403615949F9
:1001D0004D43007F4141410204081020004141414C
:1001E0007F04020102044040404040000307080031
:1001F00020545478407F28444438384444442838B4
:100200004444287F385454541800087E090218A426
:10021000A49C787F0804047800447D40002040407E
:100220003D007F1028440000417F40007C0478049A
:10023000787C080404783844444438FC1824241892
:1002400018242418FC7C080404084854545424043A
:10025000043F44243C4040207C1C2040201C3C4067
:1002600030403C44281028444C9090907C44645486
:100270004C44000836410000007700000041360879
:100280000002010204023C2623263C68001980205B
:1002900000000000002300260029000404040404D8
:1002A0000404040202020202020303030303030123
:1002B00002040810204080010204081020010204FA
:1002C00008102000000008000201000003040700DD
:1002D0000000000000000000970811241FBECFEFAF
:1002E000D8E0DEBFCDBF11E0A0E0B1E0EEE1FAE181
:1002F00002C005900D92A033B107D9F722E0A0E328
:10030000B1E001C01D92A532B207E1F711E0CDE6E0
:10031000D1E004C02197FE010E94020DCC36D10726
:10032000C9F70E94C1080C940D0D0C940000209197
:10033000000281E0213208F044C08091DC0181118B
:10034000FCCF8091FF0192E09093DC0191E09093CB
:10035000DB019FEF9093DA011092D9012093D8012D
:10036000AFEDB1E0E8EBF1E090E0291331C010927D
:10037000B7019091B701880F892B8093B7018091C5
:10038000B601813049F51092B6018091B701809392
:10039000BB008091BC0083FDF8CF85EC8093BC004E
:1003A0008091DC018230E1F38091DA018F3FB1F07E
:1003B0008091DA018032A1F08091DA01803391F0EE
:1003C00084E01092DE01109200021092DD01089587
:1003D0003D9131939F5FC9CF85EEE0CF80E0F1CFB3
:1003E00082E0EFCF83E0EDCF08950895AF92BF9202
:1003F000CF92DF92EF92FF920F931F93CF93DF93F1
:100400006C017B018B01040F151FEB015E01AE181F
:10041000BF08C017D10759F06991D601ED91FC9141
:100420000190F081E02DC6010995892B79F7C5016E
:10043000DF91CF911F910F91FF90EF90DF90CF90C0
:10044000BF90AF900895833081F028F4813099F007
:100450008230A9F008958730A9F08830C9F084303F
:10046000B1F4809180008F7D03C0809180008F77F0
:1004700080938000089584B58F7784BD089584B5F6
:100480008F7DFBCF8091B0008F778093B00008956F
:100490008091B0008F7DF9CF1F93CF93DF93282FEA
:1004A00030E0F901ED53FD4F8491F901E155FD4F25
:1004B000D491F901E556FD4FC491CC23A9F0162F34
:1004C00081110E942302EC2FF0E0EE0FFF1FEF5688
:1004D000FF4FA591B4918FB7F894EC91111108C01A
:1004E000D095DE23DC938FBFDF91CF911F910895CC
:1004F000DE2BF8CF3FB7F894809198019091990145
:10050000A0919A01B0919B0126B5A89B05C02F3FF1
:1005100019F00196A11DB11D3FBFBA2FA92F982F29
:100520008827BC01CD01620F711D811D911D42E024
:10053000660F771F881F991F4A95D1F708958F92EC
:100540009F92AF92BF92CF92DF92EF92FF920E9462
:100550007A024B015C018AE0C82ED12CE12CF12CEF
:100560000E947A02681979098A099B09683E7340DA
:1005700081059105A8F321E0C21AD108E108F1082C
:1005800088EE880E83E0981EA11CB11CC114D10412
:10059000E104F10429F7FF90EF90DF90CF90BF9036
:1005A000AF909F908F900895CF93DF93EC018D854E
:1005B000882329F081508D87DF91CF9108959C8108
:1005C0008E819817C8F788896827E881F9810084A7
:1005D000F185E02D42E0CE0109958C818F5F8C83FF
:1005E000EBCFDC01ED91FC910084F185E02D40E042
:1005F0000994FC012781269526952695621738F4E3
:1006000065832385620F6770606B0C94F102089517
:100610000F931F93CF93FC012681621798F4C62F86
:100620008C0164836085C60F6C2F6F700E94F1028D
:100630006C2F62956F706061C801CF911F910F910F
:100640000C94F102CF911F910F910895CF92DF92F8
:10065000EF92FF920F931F93CF93DF93EC01F62E4F
:10066000C42ED22E1D868F81869586958695081775
:1006700010F00FEF080F1D2D6F2DCE01011788F020
:100680000E940803612FCE010E94F902EF2CCE14C4
:1006900030F06889CE010E94D402E394F8CF1F5F46
:1006A000EBCF0E9408036D2DCE01DF91CF911F91FA
:1006B0000F91FF90EF90DF90CF900C94F9022F9262
:1006C0003F924F925F926F927F928F929F92AF92E2
:1006D000BF92CF92DF92EF92FF920F931F93CF932F
:1006E000DF9300D000D000D0CDB7DEB7DC011E967E
:1006F0002D913C912115310509F459C19E838D83BB
:10070000F9013296649031964491E42EF12CB7E0D1
:10071000EB0EF11C53E0F594E7945A95E1F7E9826A
:10072000319654913196E491651748F08E2F90E000
:10073000FC01E50FF11D6E171F060CF46EC06D3045
:1007400041F460E08D819E810E94080381E090E089
:1007500030C16A3009F02BC160E08D819E810E941A
:100760000803ED81FE8101890E9DE02C1124658135
:100770006E0D8485882349F0278126952695269538
:100780008E2D821B860F18162CF08D819E810E9463
:10079000F902DCCFAD81BE811B969C911B97890F1E
:1007A00087701B968C931B972E1915962C93159773
:1007B0001E96ED91FC91309771F13396E491F0E043
:1007C000379633E0F595E7953A95E1F70E9F002DC2
:1007D0001124EFEFE20F0E0FED81FE8146814150B3
:1007E0006481CF010E942603AD81BE811C968C914D
:1007F0001C97813009F0AACF1B966C911B97660F4E
:10080000660F660F6F731A966C931A976064CD012A
:100810000E94F1029BCF00E0DCCF89010A5F1F4FED
:10082000651BED81FE8171855189759F502D1124C5
:100830005C83F90154912F5F3F4FF9012491352FCB
:100840002230310508F075C06E9CC0016F9C900D80
:100850001124689FF001699FF00D11240E0F1F1FD6
:10086000512CAD81BE811496BC91BA83ED81FE817D
:100870002580F585FB83862C912CAA24A394B12C8A
:10088000312C8981381608F090C0412CAD81BE8191
:1008900051968C915197481608F080C0EB811D96B7
:1008A000EC93311002C0442079F0AD81BE811596E1
:1008B000DC901597D3946A81CD010E9408036D2DB9
:1008C0008D819E810E94F902D12CC12CC61408F0A2
:1008D00058C0F801EC0DFD1D7490552061F0EA142C
:1008E000FB0449F4E72DF0E0052C02C0F595E795EF
:1008F0000A94E2F77E2EED81FE818189823081F4B7
:10090000442009F43AC072948FE07822E72DF0E099
:10091000EF57FF4F7490672D8D819E810E94D40206
:10092000672D8D819E810E94D4028FEFC81AD80A4C
:10093000CDCF477028E0522E541A411101C0512CDE
:10094000F801612C30E020E0661631F04491240F6C
:10095000311D63943196F8CF600E712E711CF30136
:100960006490E29EF001E39EF00DF29EF00D1124E2
:100970008E0F9F1F080F191F74CFF72DFF707F2E4A
:10098000C5CFD12CAC81DA1639F060E08D819E8123
:100990000E94D402D394F6CF439478CF3394080DB9
:1009A000191DBFEFAB1ABB0A6CCF622DEECE90E0E3
:1009B00080E026960FB6F894DEBF0FBECDBFDF9164
:1009C000CF911F910F91FF90EF90DF90CF90BF904C
:1009D000AF909F908F907F906F905F904F903F90DF
:1009E0002F9008950F93CF93DF93EC011B861A8607
:1009F00060E40E94F1020F8106950695069501506C
:100A00004E81415020E060E0CE010E942603DF913C
:100A1000CF910F91089585ED8093BC008091BC002B
:100A200084FDFCCF1092DC01089520917001260F07
:100A30003327331F21323105ECF42091DC01FC0116
:100A400090E080E0243069F082E00895A091700188
:100A50002191AC01405B5E4FA40FB52FB11D2C93CB
:100A60000196861798F380917001680F609370016A
:100A700080E0089581E008950895E091A1018091BA
:100A8000A001E81730F4F0E0E05DFE4F808190E0D7
:100A900008958FEF9FEF08959091A1018091A0019B
:100AA0002FEF3FEF981748F4E92FF0E0E05DFE4F9D
:100AB000208130E09F5F9093A101C901089580914A
:100AC000A0019091A101891B990B0895CF92DF920B
:100AD000EF92FF920F931F93CF93DF937C01CB0193
:100AE0008A012091DD01222389F0EB016B01C40E04
:100AF000D51ECC15DD0569F06991D701ED91FC910A
:100B00000190F081E02DC7010995F3CF642F0E9479
:100B10001505C801DF91CF911F910F91FF90EF90C4
:100B2000DF90CF900895CF93DF931F92CDB7DEB7BC
:100B300069832091DD012223F9F020910002203207
:100B400058F021E030E0FC013383228390E080E024
:100B50000F90DF91CF9108958091DE01E82FF0E0B2
:100B6000E152FE4F998190838F5F8093DE018093E5
:100B7000000281E090E0ECCF61E0CE0101960E949E
:100B80001505F7CF0F931F93CF93DF93EC01062F3B
:100B9000142F8B89813120F4882329F0411103C05F
:100BA0000E9497011B8A8B89811112C08A8991E06A
:100BB0009093DD018093FF011092DE0110920002FC
:100BC00060E4111101C060E081E092E00E949305B1
:100BD000602F81E092E00E949305123041F48B89EE
:100BE0008F5F8B8BDF91CF911F910F9108950E94A2
:100BF00097011B8AF7CF089590E080E00895FC01EB
:100C000001900020E9F73197AF01481B590BBC0157
:100C100081E192E00C94F6018F929F92AF92BF9285
:100C20000F931F93CF93DF93CDB7DEB7A1970FB686
:100C3000F894DEBF0FBECDBF19A2423008F44AE0DF
:100C40008E010F5D1F4F842E912CB12CA12CA5017C
:100C500094010E94E00CE62FB901CA01EA30F4F4D5
:100C6000E05DD801EE938D01232B242B252B79F702
:100C700090E080E0109719F0CD010E94FF05A19649
:100C80000FB6F894DEBF0FBECDBFDF91CF911F919D
:100C90000F91BF90AF909F908F900895E95CE1CF46
:100CA0004F925F926F927F928F929F92AF92BF927C
:100CB000CF92DF92EF92FF920F931F93CF936B012E
:100CC0007C01742EAC019B010E94DB0C882399F0FF
:100CD00080E291E0CF911F910F91FF90EF90DF9014
:100CE000CF90BF90AF909F908F907F906F905F90CC
:100CF0004F900C94FF0546015701E894B7F82FEF89
:100D00003FEF4FE75FE7C501B4010E94DB0C8111A3
:100D10000DC02FEF3FEF4FE75FE7C501B4010E9421
:100D2000110B18161CF484E291E0D4CF2FEF3FEFA3
:100D30004FE75FE4C701B6010E94690C18161CF466
:100D400088E291E0C7CF2FEF3FEF4FE75FECC7019D
:100D5000B6010E94110B87FDF3CF20E030E0A9011E
:100D6000C701B6010E94110B10E000E087FF0AC026
:100D70006DE281E192E00E945F038C01F7FAF0944A
:100D8000F7F8F094C0E060E070E080E09FE37C164C
:100D900041F020E030E040E251E40E94160BCF5FCA
:100DA000F6CFA70196010E94A50A2B013C010E94E3
:100DB000880B4B015C014AE00E940C067C01E00EAE
:100DC000F11ECC23C1F1C501B4010E94B70B9B01F8
:100DD000AC01C301B2010E94A40A4B015C016EE2A6
:100DE00081E192E00E945F03E80EF91EC15018F104
:100DF00020E030E040E251E4C501B4010E946E0CF5
:100E00002B013C010E94880B4B01B12CA12C4AE024
:100E1000C501B4010E940C06E80EF91EC501B4011B
:100E20000E94B70B9B01AC01C301B2010E94A40A4E
:100E30004B015C01DBCFC701CF911F910F91FF9058
:100E4000EF90DF90CF90BF90AF909F908F907F906A
:100E50006F905F904F9008950E94080D1F920F921F
:100E60000FB60F9211242F933F938F939F93AF93BD
:100E7000BF938091940190919501A0919601B091BA
:100E800097013091930123E0230F2D3758F50196F8
:100E9000A11DB11D2093930180939401909395011E
:100EA000A0939601B0939701809198019091990138
:100EB000A0919A01B0919B010196A11DB11D809353
:100EC000980190939901A0939A01B0939B01BF91CF
:100ED000AF919F918F913F912F910F900FBE0F90E7
:100EE0001F90189526E8230F0296A11DB11DD2CFA1
:100EF0001F920F920FB60F9211242F933F934F938F
:100F00005F936F937F938F939F93AF93BF93EF9371
:100F1000FF938091B900887F803609F44AC0F0F5CC
:100F2000883209F4A7C018F5803109F49BC0B8F4E1
:100F3000882309F4F9C0883009F494C0FF91EF9137
:100F4000BF91AF919F918F917F916F915F914F91E1
:100F50003F912F910F900FBE0F901F9018958831E1
:100F600009F488C0803251F78093DA0114C08034CC
:100F700009F49DC040F48033B9F38833F9F68093C7
:100F8000DA0185ECB0C0803509F485C0883509F4F4
:100F900096C0883499F60E940B05D0CF883909F4A1
:100FA0008CC038F5883729F050F4883611F0803736
:100FB00029F683E08093DC011092920157C08838B3
:100FC00009F47BC0803919F0803809F0B7CF8091DF
:100FD0009201803208F071C0E091920181E08E0FA1
:100FE000809392018091BB00F0E0EE58FE4F808329
:100FF0003DC0803B39F0E0F4803A09F479C0883A8A
:1010000009F09CCF84E08093DC0110927101109272
:101010007001E0919E01F0919F010995809170010E
:1010200081110FC081E0809370011092500109C0BE
:10103000803C09F4A6CF883C09F4A3CF883B09F093
:101040007DCFE091710181E08E0F80937101F0E01E
:10105000E05BFE4F80818093BB0090917101809195
:10106000700129C08091B7018093BB0085EC80930B
:10107000BC0064CF9091D9018091D801981758F5A0
:10108000E091D90181E08E0F8093D901F0E0E8541E
:10109000FE4F8081E9CFE091D90181E08E0F8093EE
:1010A000D9018091BB00F0E0E854FE4F808390911D
:1010B000D9018091D8019817C8F285E8D8CFE0917E
:1010C000D90181E08E0F8093D9018091BB00F0E0BF
:1010D000E854FE4F80838091DB0181115CCF81E079
:1010E0008093B60184EA8093BC001092DC0126CF85
:1010F00085EC8093BC001092DC01809192018032DB
:1011000030F4E0919201F0E0EE58FE4F10826091D1
:10111000920170E0E0919C01F0919D0182E791E0E5
:101120000995109292010ACF1092DA0134CFE1E0D2
:10113000F2E01382128288EE93E0A0E0B0E08483B4
:101140009583A683B78384E091E091838083E1E176
:10115000F2E0138212821486158617861686108A8C
:1011600081E0818B86E191E0918380830E947A0205
:1011700060930D0270930E0280930F029093100201
:101180000895789484B5826084BD84B5816084BDFF
:1011900085B5826085BD85B5816085BD80916E0015
:1011A000816080936E001092810080918100826046
:1011B0008093810080918100816080938100809183
:1011C00080008160809380008091B1008460809372
:1011D000B1008091B00081608093B00080917A006E
:1011E000846080937A0080917A00826080937A0094
:1011F00080917A00816080937A0080917A00806883
:1012000080937A001092C1001092A1011092A00167
:101210001092DE01109200021092DC0181E08093B6
:10122000DB011092B60161E082E10E944C0261E0B4
:1012300083E10E944C028091B9008E7F8093B900B7
:101240008091B9008D7F8093B90088E48093B800C5
:1012500085E48093BC0084EF91E090939F0180939C
:101260009E0185EF91E090939D0180939C01C1EBDD
:10127000D2E0FE0124910DE912E0F8018491882367
:10128000C9F090E0880F991FFC01E556FF4FA5912A
:10129000B491FC01EF56FF4F459154913FB7F8943C
:1012A0009C91822F809598239C93FA0190818923A9
:1012B00080833FBFEEEAF3E02491EAE9F3E0849112
:1012C000882399F090E0880F991FFC01E556FF4FA5
:1012D000A591B491FC01EF56FF4F859194918FB782
:1012E000F894EC91E22BEC938FBF60E08FEF0E94BB
:1012F0004C020E949F0261E08FEF0E944C020E940C
:101300009F02109224028CE3809323021092150214
:1013100010921602EBE8F2E085919491C82EEDE868
:10132000F2E0D490EEE8F2E0E491E0931702EFE807
:10133000F2E0E491E0931802E0E9F2E0E491E09356
:1013400019027C018E2D8C198D1550F4F7016491D2
:1013500081E192E00E94F102FFEFEF1AFF0AF2CF63
:1013600081E192E00E94F204E5EAF0E0F0932002CD
:10137000E0931F028491E6EAF0E0E491F82F3197C0
:1013800009F0DBC010921A0281E08093220295ECF2
:10139000E92E92E0F92E20E0C22E20E0D22EF701B5
:1013A0008491FE01A490F801B490BB2009F4C9C057
:1013B00081110E942302EB2DF0E0EE0FFF1FEF568C
:1013C000FD4FA591B4918C91A82291E080E009F4A1
:1013D00090E0A92EB82EB092B501A092B4018091F0
:1013E000B2019091B3018A159B0509F44BC0F1E05D
:1013F000AF16B10409F046C00E947A024090AE01D7
:101400005090AF016090B0017090B1019B01AC01B0
:10141000241935094609570929013A014092AA01C0
:101420005092AB016092AC017092AD010E947A02C1
:101430006093AE017093AF018093B0019093B101BE
:10144000C301B2010E94B70B9B01AC0160E074E2E2
:1014500084E799E40E94160B6093A6017093A7019C
:101460008093A8019093A90120E030E040E752E486
:101470000E946E0C6093A2017093A3018093A4015B
:101480009093A501B092B301A092B2010E947A029A
:10149000AB01BC0180910D0290910E02A0910F0250
:1014A000B0911002805C9D4BA04FBF4F84179507F1
:1014B000A607B707D8F581E192E00E94F204609197
:1014C000AA017091AB018091AC019091AD014AE00D
:1014D0000E940C068CE291E00E94FF056091A6013B
:1014E0007091A7018091A8019091A90142E00E940A
:1014F00050068CE291E00E94FF056091A20170917C
:10150000A3018091A4019091A50142E00E945006A0
:101510008CE291E00E94FF050E947A0260930D0226
:1015200070930E0280930F0290931002C114D104A5
:1015300009F435CF0E94000032CF81E080931A0277
:1015400023CFB12CA12C47CF5058BB27AA270E94EC
:10155000BC0A0C942F0C0E94210C38F00E94280C1D
:1015600020F039F49F3F19F426F40C941E0C0EF46D
:10157000E095E7FB0C94180CE92F0E94400C58F3FF
:10158000BA17620773078407950720F079F4A6F568
:101590000C94620C0EF4E0950B2EBA2FA02D0B01CB
:1015A000B90190010C01CA01A0011124FF27591BA8
:1015B00099F0593F50F4503E68F11A16F040A22FAE
:1015C000232F342F4427585FF3CF4695379527951F
:1015D000A795F0405395C9F77EF41F16BA0B620B1E
:1015E000730B840BBAF09150A1F0FF0FBB1F661F65
:1015F000771F881FC2F70EC0BA0F621F731F841FA8
:1016000048F4879577956795B795F7959E3F08F0CD
:10161000B0CF9395880F08F09927EE0F979587958F
:1016200008950E94F40B08F481E008950E942A0BAB
:101630000C942F0C0E94280C58F00E94210C40F0B2
:1016400029F45F3F29F00C94180C51110C94630C91
:101650000C941E0C0E94400C68F39923B1F355239F
:1016600091F3951B550BBB27AA27621773078407B5
:1016700038F09F5F5F4F220F331F441FAA1FA9F34B
:1016800035D00E2E3AF0E0E832D091505040E69539
:10169000001CCAF72BD0FE2F29D0660F771F881F9A
:1016A000BB1F261737074807AB07B0E809F0BB0B8D
:1016B000802DBF01FF2793585F4F3AF09E3F5105A1
:1016C00078F00C94180C0C94630C5F3FE4F3983E94
:1016D000D4F3869577956795B795F7959F5FC9F78A
:1016E000880F911D9695879597F90895E1E0660F0B
:1016F000771F881FBB1F621773078407BA0720F084
:10170000621B730B840BBA0BEE1F88F7E0950895EC
:101710000E94480C88F09F5798F0B92F9927B7512D
:10172000B0F0E1F0660F771F881F991F1AF0BA9585
:10173000C9F714C0B13091F00E94620CB1E0089575
:101740000C94620C672F782F8827B85F39F0B93F67
:10175000CCF3869577956795B395D9F73EF4909538
:101760008095709561957F4F8F4F9F4F0895E894B6
:1017700009C097FB3EF490958095709561957F4FD9
:101780008F4F9F4F9923A9F0F92F96E9BB27939587
:10179000F695879577956795B795F111F8CFFAF497
:1017A000BB0F11F460FF1BC06F5F7F4F8F4F9F4FC8
:1017B00016C0882311F096E911C0772321F09EE826
:1017C000872F762F05C0662371F096E8862F70E08C
:1017D00060E02AF09A95660F771F881FDAF7880F66
:1017E0009695879597F90895990F0008550FAA0BBC
:1017F000E0E8FEEF16161706E807F907C0F0121624
:101800001306E407F50798F0621B730B840B950B26
:1018100039F40A2661F0232B242B252B21F408957B
:101820000A2609F4A140A6958FEF811D811D089518
:1018300097F99F6780E870E060E008959FEF80EC83
:10184000089500240A941616170618060906089526
:1018500000240A9412161306140605060895092E8C
:101860000394000C11F4882352F0BB0F40F4BF2BFB
:1018700011F460FF04C06F5F7F4F8F4F9F4F08953B
:1018800057FD9058440F551F59F05F3F71F0479531
:10189000880F97FB991F61F09F3F79F08795089516
:1018A000121613061406551FF2CF4695F1DF08C035
:1018B000161617061806991FF1CF86957105610552
:1018C00008940895E894BB2766277727CB0197F9FA
:1018D00008950E94F40B08F48FEF08950E94810C84
:1018E0000C942F0C0E94210C38F00E94280C20F040
:1018F000952311F00C94180C0C941E0C11240C94CC
:10190000630C0E94400C70F3959FC1F3950F50E05B
:10191000551F629FF001729FBB27F00DB11D639FA1
:10192000AA27F00DB11DAA1F649F6627B00DA11D47
:10193000661F829F2227B00DA11D621F739FB00DED
:10194000A11D621F839FA00D611D221F749F33275D
:10195000A00D611D231F849F600D211D822F762FF6
:101960006A2F11249F5750409AF0F1F088234AF0D3
:10197000EE0FFF1FBB1F661F771F881F915050403F
:10198000A9F79E3F510580F00C94180C0C94630C41
:101990005F3FE4F3983ED4F3869577956795B795C6
:1019A000F795E7959F5FC1F7FE2B880F911D9695E0
:1019B000879597F908950E94F40B880B990B089569
:1019C000A1E21A2EAA1BBB1BFD010DC0AA1FBB1F43
:1019D000EE1FFF1FA217B307E407F50720F0A21BB5
:1019E000B30BE40BF50B661F771F881F991F1A9422
:1019F00069F760957095809590959B01AC01BD014C
:101A0000CF010895EE0FFF1F0590F491E02D09948A
:0E1A100081E090E0F8940C940D0DF894FFCF57
:101A1E000000000093056605FC053C055F054C05BE
:101A2E003D05000000005F03F601FC05FB05C20545
:101A3E006E616E00696E66006F7666000D0A0000BC
:00000001FF
